{
  "_format": "hh-sol-artifact-1",
  "contractName": "Cipher",
  "sourceName": "contracts/Cipher.sol",
  "abi": [
    {
      "inputs": [
        {
          "internalType": "address",
          "name": "verifierAddr",
          "type": "address"
        },
        {
          "internalType": "address",
          "name": "poseidonT3Addr",
          "type": "address"
        }
      ],
      "stateMutability": "nonpayable",
      "type": "constructor"
    },
    {
      "inputs": [
        {
          "internalType": "uint256",
          "name": "amount",
          "type": "uint256"
        },
        {
          "internalType": "uint256",
          "name": "transferredAmt",
          "type": "uint256"
        }
      ],
      "name": "AmountInconsistent",
      "type": "error"
    },
    {
      "inputs": [
        {
          "internalType": "uint32",
          "name": "deadline",
          "type": "uint32"
        }
      ],
      "name": "ExpiredDeadline",
      "type": "error"
    },
    {
      "inputs": [
        {
          "internalType": "uint256",
          "name": "commitmentNum",
          "type": "uint256"
        }
      ],
      "name": "InvalidCommitmentNum",
      "type": "error"
    },
    {
      "inputs": [],
      "name": "InvalidFeeReceiverAddr",
      "type": "error"
    },
    {
      "inputs": [
        {
          "internalType": "uint256",
          "name": "value",
          "type": "uint256"
        }
      ],
      "name": "InvalidFieldValue",
      "type": "error"
    },
    {
      "inputs": [
        {
          "internalType": "uint16",
          "name": "maxAllowableFeeRate",
          "type": "uint16"
        }
      ],
      "name": "InvalidMaxAllowableFeeRate",
      "type": "error"
    },
    {
      "inputs": [
        {
          "internalType": "uint256",
          "name": "msgValue",
          "type": "uint256"
        }
      ],
      "name": "InvalidMsgValue",
      "type": "error"
    },
    {
      "inputs": [
        {
          "internalType": "uint256",
          "name": "nullifier",
          "type": "uint256"
        }
      ],
      "name": "InvalidNullifier",
      "type": "error"
    },
    {
      "inputs": [
        {
          "internalType": "uint256",
          "name": "nullifierNum",
          "type": "uint256"
        }
      ],
      "name": "InvalidNullifierNum",
      "type": "error"
    },
    {
      "inputs": [
        {
          "components": [
            {
              "internalType": "uint256[2]",
              "name": "a",
              "type": "uint256[2]"
            },
            {
              "internalType": "uint256[2][2]",
              "name": "b",
              "type": "uint256[2][2]"
            },
            {
              "internalType": "uint256[2]",
              "name": "c",
              "type": "uint256[2]"
            },
            {
              "components": [
                {
                  "internalType": "uint256",
                  "name": "root",
                  "type": "uint256"
                },
                {
                  "internalType": "uint256",
                  "name": "publicInAmt",
                  "type": "uint256"
                },
                {
                  "internalType": "uint256",
                  "name": "publicOutAmt",
                  "type": "uint256"
                },
                {
                  "internalType": "uint256",
                  "name": "publicInfoHash",
                  "type": "uint256"
                },
                {
                  "internalType": "uint256[]",
                  "name": "inputNullifiers",
                  "type": "uint256[]"
                },
                {
                  "internalType": "uint256[]",
                  "name": "outputCommitments",
                  "type": "uint256[]"
                }
              ],
              "internalType": "struct PublicSignals",
              "name": "publicSignals",
              "type": "tuple"
            }
          ],
          "internalType": "struct Proof",
          "name": "proof",
          "type": "tuple"
        }
      ],
      "name": "InvalidProof",
      "type": "error"
    },
    {
      "inputs": [
        {
          "internalType": "uint256",
          "name": "publicInfoHash",
          "type": "uint256"
        },
        {
          "internalType": "uint256",
          "name": "calcPublicInfoHash",
          "type": "uint256"
        }
      ],
      "name": "InvalidPublicInfo",
      "type": "error"
    },
    {
      "inputs": [],
      "name": "InvalidRecipientAddr",
      "type": "error"
    },
    {
      "inputs": [
        {
          "internalType": "uint16",
          "name": "feeRate",
          "type": "uint16"
        },
        {
          "internalType": "uint16",
          "name": "maxAllowableFeeRate",
          "type": "uint16"
        }
      ],
      "name": "InvalidRelayerFeeRate",
      "type": "error"
    },
    {
      "inputs": [
        {
          "internalType": "uint256",
          "name": "root",
          "type": "uint256"
        }
      ],
      "name": "InvalidRoot",
      "type": "error"
    },
    {
      "inputs": [
        {
          "internalType": "uint256",
          "name": "treeDepth",
          "type": "uint256"
        }
      ],
      "name": "InvalidTreeDepth",
      "type": "error"
    },
    {
      "inputs": [
        {
          "internalType": "address",
          "name": "notRegisteredRelayerAddr",
          "type": "address"
        }
      ],
      "name": "NotRegisteredRelayer",
      "type": "error"
    },
    {
      "inputs": [
        {
          "internalType": "contract IERC20",
          "name": "token",
          "type": "address"
        }
      ],
      "name": "TokenTreeAlreadyInitialized",
      "type": "error"
    },
    {
      "inputs": [
        {
          "internalType": "contract IERC20",
          "name": "token",
          "type": "address"
        }
      ],
      "name": "TokenTreeNotExists",
      "type": "error"
    },
    {
      "inputs": [
        {
          "internalType": "address payable",
          "name": "receiver",
          "type": "address"
        },
        {
          "internalType": "uint256",
          "name": "amount",
          "type": "uint256"
        },
        {
          "internalType": "bytes",
          "name": "data",
          "type": "bytes"
        }
      ],
      "name": "TransferNativeTokenFailed",
      "type": "error"
    },
    {
      "inputs": [
        {
          "internalType": "uint256",
          "name": "treeDepth",
          "type": "uint256"
        },
        {
          "internalType": "uint256",
          "name": "leafIndex",
          "type": "uint256"
        }
      ],
      "name": "TreeIsFull",
      "type": "error"
    },
    {
      "anonymous": false,
      "inputs": [
        {
          "indexed": true,
          "internalType": "contract IERC20",
          "name": "token",
          "type": "address"
        },
        {
          "indexed": false,
          "internalType": "uint256",
          "name": "newRoot",
          "type": "uint256"
        },
        {
          "indexed": false,
          "internalType": "uint256",
          "name": "commitment",
          "type": "uint256"
        },
        {
          "indexed": false,
          "internalType": "uint256",
          "name": "leafIndex",
          "type": "uint256"
        }
      ],
      "name": "NewCommitment",
      "type": "event"
    },
    {
      "anonymous": false,
      "inputs": [
        {
          "indexed": true,
          "internalType": "contract IERC20",
          "name": "token",
          "type": "address"
        },
        {
          "indexed": false,
          "internalType": "uint256",
          "name": "nullifier",
          "type": "uint256"
        }
      ],
      "name": "NewNullifier",
      "type": "event"
    },
    {
      "anonymous": false,
      "inputs": [
        {
          "indexed": true,
          "internalType": "address",
          "name": "relayer",
          "type": "address"
        },
        {
          "indexed": false,
          "internalType": "string",
          "name": "relayerMetadataUri",
          "type": "string"
        }
      ],
      "name": "NewRelayer",
      "type": "event"
    },
    {
      "anonymous": false,
      "inputs": [
        {
          "indexed": true,
          "internalType": "contract IERC20",
          "name": "token",
          "type": "address"
        },
        {
          "indexed": false,
          "internalType": "uint256",
          "name": "depth",
          "type": "uint256"
        },
        {
          "indexed": false,
          "internalType": "uint256",
          "name": "zeroValue",
          "type": "uint256"
        },
        {
          "indexed": false,
          "internalType": "uint256",
          "name": "root",
          "type": "uint256"
        }
      ],
      "name": "NewTokenTree",
      "type": "event"
    },
    {
      "anonymous": false,
      "inputs": [
        {
          "indexed": false,
          "internalType": "address",
          "name": "sender",
          "type": "address"
        },
        {
          "components": [
            {
              "internalType": "address payable",
              "name": "registeredAddr",
              "type": "address"
            },
            {
              "internalType": "address payable",
              "name": "feeReceiver",
              "type": "address"
            },
            {
              "internalType": "uint16",
              "name": "feeRate",
              "type": "uint16"
            }
          ],
          "indexed": false,
          "internalType": "struct RelayerInfo",
          "name": "relayerInfo",
          "type": "tuple"
        },
        {
          "indexed": false,
          "internalType": "uint256",
          "name": "feeAmt",
          "type": "uint256"
        }
      ],
      "name": "RelayInfo",
      "type": "event"
    },
    {
      "anonymous": false,
      "inputs": [
        {
          "indexed": true,
          "internalType": "address",
          "name": "relayer",
          "type": "address"
        },
        {
          "indexed": false,
          "internalType": "string",
          "name": "newRelayerMetadataUri",
          "type": "string"
        }
      ],
      "name": "RelayerUpdated",
      "type": "event"
    },
    {
      "inputs": [
        {
          "components": [
            {
              "internalType": "uint256[2]",
              "name": "a",
              "type": "uint256[2]"
            },
            {
              "internalType": "uint256[2][2]",
              "name": "b",
              "type": "uint256[2][2]"
            },
            {
              "internalType": "uint256[2]",
              "name": "c",
              "type": "uint256[2]"
            },
            {
              "components": [
                {
                  "internalType": "uint256",
                  "name": "root",
                  "type": "uint256"
                },
                {
                  "internalType": "uint256",
                  "name": "publicInAmt",
                  "type": "uint256"
                },
                {
                  "internalType": "uint256",
                  "name": "publicOutAmt",
                  "type": "uint256"
                },
                {
                  "internalType": "uint256",
                  "name": "publicInfoHash",
                  "type": "uint256"
                },
                {
                  "internalType": "uint256[]",
                  "name": "inputNullifiers",
                  "type": "uint256[]"
                },
                {
                  "internalType": "uint256[]",
                  "name": "outputCommitments",
                  "type": "uint256[]"
                }
              ],
              "internalType": "struct PublicSignals",
              "name": "publicSignals",
              "type": "tuple"
            }
          ],
          "internalType": "struct Proof",
          "name": "proof",
          "type": "tuple"
        },
        {
          "components": [
            {
              "internalType": "uint16",
              "name": "maxAllowableFeeRate",
              "type": "uint16"
            },
            {
              "internalType": "address payable",
              "name": "recipient",
              "type": "address"
            },
            {
              "internalType": "contract IERC20",
              "name": "token",
              "type": "address"
            },
            {
              "internalType": "uint32",
              "name": "deadline",
              "type": "uint32"
            }
          ],
          "internalType": "struct PublicInfo",
          "name": "publicInfo",
          "type": "tuple"
        }
      ],
      "name": "cipherTransact",
      "outputs": [],
      "stateMutability": "payable",
      "type": "function"
    },
    {
      "inputs": [
        {
          "components": [
            {
              "internalType": "uint256[2]",
              "name": "a",
              "type": "uint256[2]"
            },
            {
              "internalType": "uint256[2][2]",
              "name": "b",
              "type": "uint256[2][2]"
            },
            {
              "internalType": "uint256[2]",
              "name": "c",
              "type": "uint256[2]"
            },
            {
              "components": [
                {
                  "internalType": "uint256",
                  "name": "root",
                  "type": "uint256"
                },
                {
                  "internalType": "uint256",
                  "name": "publicInAmt",
                  "type": "uint256"
                },
                {
                  "internalType": "uint256",
                  "name": "publicOutAmt",
                  "type": "uint256"
                },
                {
                  "internalType": "uint256",
                  "name": "publicInfoHash",
                  "type": "uint256"
                },
                {
                  "internalType": "uint256[]",
                  "name": "inputNullifiers",
                  "type": "uint256[]"
                },
                {
                  "internalType": "uint256[]",
                  "name": "outputCommitments",
                  "type": "uint256[]"
                }
              ],
              "internalType": "struct PublicSignals",
              "name": "publicSignals",
              "type": "tuple"
            }
          ],
          "internalType": "struct Proof",
          "name": "proof",
          "type": "tuple"
        },
        {
          "components": [
            {
              "internalType": "uint16",
              "name": "maxAllowableFeeRate",
              "type": "uint16"
            },
            {
              "internalType": "address payable",
              "name": "recipient",
              "type": "address"
            },
            {
              "internalType": "contract IERC20",
              "name": "token",
              "type": "address"
            },
            {
              "internalType": "uint32",
              "name": "deadline",
              "type": "uint32"
            }
          ],
          "internalType": "struct PublicInfo",
          "name": "publicInfo",
          "type": "tuple"
        },
        {
          "components": [
            {
              "internalType": "address payable",
              "name": "registeredAddr",
              "type": "address"
            },
            {
              "internalType": "address payable",
              "name": "feeReceiver",
              "type": "address"
            },
            {
              "internalType": "uint16",
              "name": "feeRate",
              "type": "uint16"
            }
          ],
          "internalType": "struct RelayerInfo",
          "name": "relayerInfo",
          "type": "tuple"
        }
      ],
      "name": "cipherTransactWithRelayer",
      "outputs": [],
      "stateMutability": "payable",
      "type": "function"
    },
    {
      "inputs": [
        {
          "internalType": "contract IERC20",
          "name": "token",
          "type": "address"
        }
      ],
      "name": "getHistoryRootIdx",
      "outputs": [
        {
          "internalType": "uint256",
          "name": "",
          "type": "uint256"
        }
      ],
      "stateMutability": "view",
      "type": "function"
    },
    {
      "inputs": [
        {
          "internalType": "contract IERC20",
          "name": "token",
          "type": "address"
        }
      ],
      "name": "getHistoryRoots",
      "outputs": [
        {
          "internalType": "uint256[32]",
          "name": "",
          "type": "uint256[32]"
        }
      ],
      "stateMutability": "view",
      "type": "function"
    },
    {
      "inputs": [
        {
          "internalType": "address",
          "name": "relayerAddr",
          "type": "address"
        }
      ],
      "name": "getRelayerMetadataUri",
      "outputs": [
        {
          "internalType": "string",
          "name": "",
          "type": "string"
        }
      ],
      "stateMutability": "view",
      "type": "function"
    },
    {
      "inputs": [
        {
          "internalType": "contract IERC20",
          "name": "token",
          "type": "address"
        }
      ],
      "name": "getTreeDepth",
      "outputs": [
        {
          "internalType": "uint256",
          "name": "",
          "type": "uint256"
        }
      ],
      "stateMutability": "view",
      "type": "function"
    },
    {
      "inputs": [
        {
          "internalType": "contract IERC20",
          "name": "token",
          "type": "address"
        },
        {
          "internalType": "uint256",
          "name": "level",
          "type": "uint256"
        }
      ],
      "name": "getTreeLastSubtrees",
      "outputs": [
        {
          "internalType": "uint256[2]",
          "name": "",
          "type": "uint256[2]"
        }
      ],
      "stateMutability": "view",
      "type": "function"
    },
    {
      "inputs": [
        {
          "internalType": "contract IERC20",
          "name": "token",
          "type": "address"
        }
      ],
      "name": "getTreeLeafNum",
      "outputs": [
        {
          "internalType": "uint256",
          "name": "",
          "type": "uint256"
        }
      ],
      "stateMutability": "view",
      "type": "function"
    },
    {
      "inputs": [
        {
          "internalType": "contract IERC20",
          "name": "token",
          "type": "address"
        }
      ],
      "name": "getTreeRoot",
      "outputs": [
        {
          "internalType": "uint256",
          "name": "",
          "type": "uint256"
        }
      ],
      "stateMutability": "view",
      "type": "function"
    },
    {
      "inputs": [],
      "name": "getVerifier",
      "outputs": [
        {
          "internalType": "contract ICipherVerifier",
          "name": "",
          "type": "address"
        }
      ],
      "stateMutability": "view",
      "type": "function"
    },
    {
      "inputs": [
        {
          "internalType": "contract IERC20",
          "name": "token",
          "type": "address"
        }
      ],
      "name": "initTokenTree",
      "outputs": [],
      "stateMutability": "nonpayable",
      "type": "function"
    },
    {
      "inputs": [
        {
          "internalType": "contract IERC20",
          "name": "token",
          "type": "address"
        },
        {
          "internalType": "uint256",
          "name": "nullifier",
          "type": "uint256"
        }
      ],
      "name": "isNullified",
      "outputs": [
        {
          "internalType": "bool",
          "name": "",
          "type": "bool"
        }
      ],
      "stateMutability": "view",
      "type": "function"
    },
    {
      "inputs": [
        {
          "internalType": "contract IERC20",
          "name": "token",
          "type": "address"
        },
        {
          "internalType": "uint256",
          "name": "root",
          "type": "uint256"
        }
      ],
      "name": "isValidRoot",
      "outputs": [
        {
          "internalType": "bool",
          "name": "",
          "type": "bool"
        }
      ],
      "stateMutability": "view",
      "type": "function"
    },
    {
      "inputs": [
        {
          "internalType": "string",
          "name": "relayerMetadataUri",
          "type": "string"
        }
      ],
      "name": "registerAsRelayer",
      "outputs": [],
      "stateMutability": "nonpayable",
      "type": "function"
    },
    {
      "inputs": [
        {
          "internalType": "string",
          "name": "newRelayerMetadataUri",
          "type": "string"
        }
      ],
      "name": "updateRelayerMetadataUri",
      "outputs": [],
      "stateMutability": "nonpayable",
      "type": "function"
    }
  ],
  "bytecode": "0x60c06040523480156200001157600080fd5b5060405162002e6a38038062002e6a833981016040819052620000349162000671565b6001600160a01b03808316608052811660a0526200006673eeeeeeeeeeeeeeeeeeeeeeeeeeeeeeeeeeeeeeee6200006e565b5050620006a9565b6001600160a01b0381166000908152602081905260409020805415620000b7576040516301e77d5760e21b81526001600160a01b03831660048201526024015b60405180910390fd5b620000c48160186200013a565b600181015460408051601881527f207c5bec4c6b0b844498e58be209fe56991c3e0d18742cd0ea66ca332a00f8916020820152908101919091526001600160a01b038316907faf934a65fb1552da410df34d671dc5d373cc2c3b54fb7cd9f386b2de6f69ced19060600160405180910390a25050565b801580620001485750602081115b156200016b57604051635e2aaa0d60e11b815260048101829052602401620000ae565b808255620001798162000185565b82600101819055505050565b600081600003620001b757507f207c5bec4c6b0b844498e58be209fe56991c3e0d18742cd0ea66ca332a00f891919050565b81600103620001e757507f265204c9e8db684f18550d874816b347b7109c88a1fea4d02977ee5ed60c8f1b919050565b816002036200021757507f1e8bb23cd0b8a1c4337886af736ec6619284fbb519d949ce8bb0da065c8863d7919050565b816003036200024757507f231bc651092523b2b384ece9675a37d1a651c6a7d7f79f6cb01c4b3c1c1f1ef0919050565b816004036200027757507f1a4d13ddb1bc4ddf165f9c356886a346b7ada91409d844d66035e6c5e0b61975919050565b81600503620002a757507f0335fd529358a068177f9a6dfd97ebf657f7df9652fd70a3de694f22003d329e919050565b81600603620002d757507f17d943f717a87f5ae4624c689bbf1f6ec2125f4cf0c7b00ac858aeb470d363b3919050565b816007036200030757507f1c69ee601274854bfd66d8fcdf0b1e25b3dcd45688ae25019598969364dc0fca919050565b816008036200033757507f0d1e621cc718884d9cd3731c0c6c1b2fb49839fc237994c92f32e5e71d268a1b919050565b816009036200036757507f2bfbbeaeb5b6bb5f36c8c1b6c21d4396cc6dbc9aae9f89393f334d8ca6d6765f919050565b81600a036200039757507f08c14302a20f829c5e6ce1427d6fe358004175f45bbdefd14e876cd2aa863c12919050565b81600b03620003c757507f24fea40e72cd40a39f789a2a52e5645f93777470c7b40cea90eec2d4fe9df6ce919050565b81600c03620003f757507f1ad82991f760fcb633db63dd7f576f1624702bd6a4810c2832b07d0d2f9fad73919050565b81600d036200042757507f128eb1b418c01d4dc8361d552fdc3bf5d42550d0a9a6d06167bfdbb65f598869919050565b81600e036200045757507f2bcfe3792441cd5537ef29cac0524e18327f60bc5ab99ec5e0a6e36cd8cfac5c919050565b81600f036200048757507f0fa2a9b0e23db32ef27898dfb20873d00a32928da7ebb9a15b4c8caef86888fd919050565b81601003620004b757507f047ee94a675c7ad36d05f9714076845411710840ea9f5a8b3114a7d6dc07da9e919050565b81601103620004e757507f1892f0f4264e3a9a583206dfdf5fcad42cff9389bc3c883e20aa8542a81efc0a919050565b816012036200051757507f094d44f2f42e2932b7edc78208020e6451580fe809cd830b42d66abe8e1ca17c919050565b816013036200054757507f19eecb2d7bd54dbf33978a58c6a4108479cd4a6b5098aff3fd85977e48b63376919050565b816014036200057757507f0dc7fb8d7a518944da82d57f3031c4fbe4959bee56bf9dceb7d931e32d5fd3ae919050565b81601503620005a757507f0acf7ac8161c0ea85855f1fbcfb0a8fa6b6e9a53d94efdf9d31caf6b695b08cb919050565b81601603620005d757507f178a1a6b8c3aed14f1c0a83e9e52323b23b99e1ccf08fa010e6bd5480cc2a31b919050565b816017036200060757507f2ef5bf12452e97e9a6e555251106f00223b7851286d561098fada0b7f9bb6a03919050565b816018036200063757507f1835c52bee935f545b17f880f8811ba62f1d157671fb8e5ffa2de24b7e2d2145919050565b604051635e2aaa0d60e11b815260048101839052602401620000ae565b80516001600160a01b03811681146200066c57600080fd5b919050565b600080604083850312156200068557600080fd5b620006908362000654565b9150620006a06020840162000654565b90509250929050565b60805160a051612794620006d66000396000610bcf0152600081816101750152610afe01526127946000f3fe6080604052600436106100e85760003560e01c8063590651c31161008a5780639b5da155116100595780639b5da155146102f1578063b7841e1a14610304578063c2f20e4c14610340578063d1d34aba1461037957600080fd5b8063590651c3146102645780637c783c1c146102845780638c36335c146102b1578063939c7323146102c457600080fd5b806350ddda38116100c657806350ddda381461019f5780635239bdc6146101bf57806357089eff146101ef5780635842f3531461021c57600080fd5b8063338afc25146100ed5780633c905ada1461013957806346657fe91461015b575b600080fd5b3480156100f957600080fd5b50610126610108366004611de6565b6001600160a01b031660009081526020819052604090206001015490565b6040519081526020015b60405180910390f35b34801561014557600080fd5b50610159610154366004611e19565b6103af565b005b34801561016757600080fd5b506040516001600160a01b037f0000000000000000000000000000000000000000000000000000000000000000168152602001610130565b3480156101ab57600080fd5b506101596101ba366004611e19565b61040d565b3480156101cb57600080fd5b506101df6101da366004611eca565b610460565b6040519015158152602001610130565b3480156101fb57600080fd5b5061020f61020a366004611de6565b61048b565b6040516101309190611f46565b34801561022857600080fd5b506101df610237366004611eca565b6001600160a01b039190911660009081526020818152604080832093835260259093019052205460ff1690565b34801561027057600080fd5b5061015961027f366004611de6565b610537565b34801561029057600080fd5b506102a461029f366004611de6565b610543565b6040516101309190611f59565b6101596102bf366004611fba565b61059a565b3480156102d057600080fd5b506102e46102df366004611eca565b6105fe565b6040516101309190612026565b6101596102ff36600461204e565b61065c565b34801561031057600080fd5b5061012661031f366004611de6565b6001600160a01b031660009081526020819052604090206003015460ff1690565b34801561034c57600080fd5b5061012661035b366004611de6565b6001600160a01b031660009081526020819052604090206002015490565b34801561038557600080fd5b50610126610394366004611de6565b6001600160a01b031660009081526020819052604090205490565b3360009081526001602052604090206103c88282612117565b50336001600160a01b03167ff07dbf3d77012f0b44fefb89300e81a4682a0955db1e819c834d2023583489cb826040516104029190611f46565b60405180910390a250565b3360009081526001602052604090206104268282612117565b50336001600160a01b03167f1721af3bd88b17087fbd950308f14ceb29a287cf0a9750b0ace83743a31485d7826040516104029190611f46565b6001600160a01b038216600090815260208190526040812061048290836106a8565b90505b92915050565b6001600160a01b03811660009081526001602052604090208054606091906104b29061209d565b80601f01602080910402602001604051908101604052809291908181526020018280546104de9061209d565b801561052b5780601f106105005761010080835404028352916020019161052b565b820191906000526020600020905b81548152906001019060200180831161050e57829003601f168201915b50505050509050919050565b610540816106c2565b50565b61054b611d41565b6001600160a01b038216600090815260208181526040918290208251610400810193849052926004909101919082845b81548152602001906001019080831161057b5750505050509050919050565b6105b06105aa60208401846121ee565b8261078b565b60006105c26060840160408501611de6565b9050366105d3610100860186612209565b90506105e18286868461095f565b6040810135156105f7576105f782858386610c11565b5050505050565b610606611d60565b6001600160a01b038316600090815260208181526040808320858452602401909152908190208151808301928390529160029082845b81548152602001906001019080831161063c575050505050905092915050565b600061066e6060830160408401611de6565b90503661067f610100850185612209565b905061068d8285858461095f565b6040810135156106a2576106a2828483610d0b565b50505050565b600182015460009082148061048257506104828383610d71565b6001600160a01b038116600090815260208190526040902080541561070a576040516301e77d5760e21b81526001600160a01b03831660048201526024015b60405180910390fd5b610715816018610e0b565b600181015460408051601881527f207c5bec4c6b0b844498e58be209fe56991c3e0d18742cd0ea66ca332a00f8916020820152908101919091526001600160a01b038316907faf934a65fb1552da410df34d671dc5d373cc2c3b54fb7cd9f386b2de6f69ced19060600160405180910390a25050565b61271061ffff831611156107b8576040516350938ca360e01b815261ffff83166004820152602401610701565b61ffff82166107cd60608301604084016121ee565b61ffff16111561080f576107e760608201604083016121ee565b60405163c82809a360e01b815261ffff91821660048201529083166024820152604401610701565b60006108216040830160208401611de6565b6001600160a01b0316036108485760405163bf0e84c560e01b815260040160405180910390fd5b6040805160208082019092526000808252610924926001919061086d90860186611de6565b6001600160a01b03166001600160a01b0316815260200190815260200160002080546108989061209d565b80601f01602080910402602001604051908101604052809291908181526020018280546108c49061209d565b80156109115780601f106108e657610100808354040283529160200191610911565b820191906000526020600020905b8154815290600101906020018083116108f457829003601f168201915b5050505050610e5190919063ffffffff16565b1561095b576109366020820182611de6565b604051630995a56b60e11b81526001600160a01b039091166004820152602401610701565b5050565b42610970608084016060850161223d565b63ffffffff1610156109ae5761098c608083016060840161223d565b6040516305ea325d60e41b815263ffffffff9091166004820152602401610701565b60006109c76109c236859003850185612258565b610e67565b9050808260600135146109fa576040516327e01da760e21b81526060830135600482015260248101829052604401610701565b6001600160a01b03851660009081526020819052604081208054909103610a3f57604051631730525760e11b81526001600160a01b0387166004820152602401610701565b610a4a8184356106a8565b610a6a576040516386e013af60e01b815283356004820152602401610701565b602083013515610a9157610a8c6001600160a01b038716336020860135610ef5565b610ab2565b3415610ab257604051630a61be9f60e41b8152346004820152602401610701565b6000610ac160808501856122d9565b915060009050610ad460a08601866122d9565b905090506000610ae48383611082565b60405163118973f160e31b81529091506001600160a01b037f00000000000000000000000000000000000000000000000000000000000000001690638c4b9f8890610b35908b908590600401612489565b6020604051808303816000875af1158015610b54573d6000803e3d6000fd5b505050506040513d601f19601f82011682018060405250810190610b7891906124b2565b610b97578760405163630b7deb60e11b815260040161070191906124d4565b8215610bb857610bb889610bae60808901896122d9565b87929190876110de565b8115610c0657610bc98487356111b2565b610c06897f0000000000000000000000000000000000000000000000000000000000000000610bfb60a08a018a6122d9565b8893929190876111fc565b505050505050505050565b6000610c236040850160208601611de6565b6001600160a01b031603610c4a5760405163b3a53cc360e01b815260040160405180910390fd5b6000610c71610c5f60608401604085016121ee565b60408501359061ffff166127106112a2565b9050610ca5610c866040860160208701611de6565b610c948360408701356124fd565b6001600160a01b0388169190611392565b610cc9610cb86040840160208501611de6565b6001600160a01b0387169083611392565b7f8081aaad4d5fceea7be0b6904cf384644daa6d790ca9a5092817c182e9adf570338383604051610cfc93929190612510565b60405180910390a15050505050565b6000610d1d6040840160208501611de6565b6001600160a01b031603610d445760405163b3a53cc360e01b815260040160405180910390fd5b610d6c610d576040840160208501611de6565b6001600160a01b038516906040840135611392565b505050565b60038201546000908190610d899060ff166020612571565b60ff1690506000610d9b60208361258a565b90505b80821015610e005760006020610db481856125b3565b610dbf9060206124fd565b610dc991906125b3565b9050856004018160208110610de057610de06125d5565b01548503610df45760019350505050610485565b82600101925050610d9e565b506000949350505050565b801580610e185750602081115b15610e3957604051635e2aaa0d60e11b815260048101829052602401610701565b808255610e4581611447565b82600101819055505050565b8051602091820120825192909101919091201490565b60408051825161ffff166020808301919091528301516001600160a01b03908116828401529183015190911660608083019190915282015163ffffffff1660808201526000907f30644e72e131a029b85045b68181585d2833e84879b9709143e1f593f00000019060a0016040516020818303038152906040528051906020012060001c61048591906125b3565b73eeeeeeeeeeeeeeeeeeeeeeeeeeeeeeeeeeeeeeed196001600160a01b03841601610f3c57803414610d6c57604051630a61be9f60e41b8152346004820152602401610701565b3415610f5d57604051630a61be9f60e41b8152346004820152602401610701565b6040516370a0823160e01b81523060048201526000906001600160a01b038516906370a0823190602401602060405180830381865afa158015610fa4573d6000803e3d6000fd5b505050506040513d601f19601f82011682018060405250810190610fc891906125eb565b9050610fdf6001600160a01b0385168430856118fc565b6040516370a0823160e01b815230600482015260009082906001600160a01b038716906370a0823190602401602060405180830381865afa158015611028573d6000803e3d6000fd5b505050506040513d601f19601f8201168201806040525081019061104c91906125eb565b61105691906124fd565b90508083146105f757604051637c68559760e11b81526004810184905260248101829052604401610701565b60006101008311156110aa57604051633feeb8a160e01b815260048101849052602401610701565b6101008211156110d0576040516343cc419d60e11b815260048101839052602401610701565b5060089190911b1760f01b90565b60005b818110156111aa5760008484838181106110fd576110fd6125d5565b60209081029290920135600081815260258b019093526040909220549192505060ff16156111415760405163d18d9dbb60e01b815260048101829052602401610701565b600081815260258801602052604090819020805460ff19166001179055516001600160a01b038716907f98c7d13fd69ecce67bfaf114f30c59e32639f30e1d23bca3fcca951555d89b5d906111999084815260200190565b60405180910390a2506001016110e1565b505050505050565b60038201548190600484019060ff16602081106111d1576111d16125d5565b01556020600383015460019060ff1608600392909201805460ff191660ff9093169290921790915550565b60005b8181101561129957600084848381811061121b5761121b6125d5565b60028b01546020909102929092013592506000905061123c8a898585611967565b60408051828152602081018690529081018490529091506001600160a01b038a16907f0c67fcdf2f1adcf3e48ee5a5450790fe42869f38304bce684d8034ac1548376e9060600160405180910390a28360010193505050506111ff565b50505050505050565b60008080600019858709858702925082811083820303915050806000036112dc578382816112d2576112d261259d565b049250505061138b565b8084116113235760405162461bcd60e51b81526020600482015260156024820152744d6174683a206d756c446976206f766572666c6f7760581b6044820152606401610701565b600084868809851960019081018716968790049682860381900495909211909303600082900391909104909201919091029190911760038402600290811880860282030280860282030280860282030280860282030280860282030280860290910302029150505b9392505050565b73eeeeeeeeeeeeeeeeeeeeeeeeeeeeeeeeeeeeeeed196001600160a01b0384160161143357600080836001600160a01b03168360405160006040518083038185875af1925050503d8060008114611405576040519150601f19603f3d011682016040523d82523d6000602084013e61140a565b606091505b5091509150816105f757838382604051632065a34d60e01b815260040161070193929190612604565b610d6c6001600160a01b0384168383611b19565b60008160000361147857507f207c5bec4c6b0b844498e58be209fe56991c3e0d18742cd0ea66ca332a00f891919050565b816001036114a757507f265204c9e8db684f18550d874816b347b7109c88a1fea4d02977ee5ed60c8f1b919050565b816002036114d657507f1e8bb23cd0b8a1c4337886af736ec6619284fbb519d949ce8bb0da065c8863d7919050565b8160030361150557507f231bc651092523b2b384ece9675a37d1a651c6a7d7f79f6cb01c4b3c1c1f1ef0919050565b8160040361153457507f1a4d13ddb1bc4ddf165f9c356886a346b7ada91409d844d66035e6c5e0b61975919050565b8160050361156357507f0335fd529358a068177f9a6dfd97ebf657f7df9652fd70a3de694f22003d329e919050565b8160060361159257507f17d943f717a87f5ae4624c689bbf1f6ec2125f4cf0c7b00ac858aeb470d363b3919050565b816007036115c157507f1c69ee601274854bfd66d8fcdf0b1e25b3dcd45688ae25019598969364dc0fca919050565b816008036115f057507f0d1e621cc718884d9cd3731c0c6c1b2fb49839fc237994c92f32e5e71d268a1b919050565b8160090361161f57507f2bfbbeaeb5b6bb5f36c8c1b6c21d4396cc6dbc9aae9f89393f334d8ca6d6765f919050565b81600a0361164e57507f08c14302a20f829c5e6ce1427d6fe358004175f45bbdefd14e876cd2aa863c12919050565b81600b0361167d57507f24fea40e72cd40a39f789a2a52e5645f93777470c7b40cea90eec2d4fe9df6ce919050565b81600c036116ac57507f1ad82991f760fcb633db63dd7f576f1624702bd6a4810c2832b07d0d2f9fad73919050565b81600d036116db57507f128eb1b418c01d4dc8361d552fdc3bf5d42550d0a9a6d06167bfdbb65f598869919050565b81600e0361170a57507f2bcfe3792441cd5537ef29cac0524e18327f60bc5ab99ec5e0a6e36cd8cfac5c919050565b81600f0361173957507f0fa2a9b0e23db32ef27898dfb20873d00a32928da7ebb9a15b4c8caef86888fd919050565b8160100361176857507f047ee94a675c7ad36d05f9714076845411710840ea9f5a8b3114a7d6dc07da9e919050565b8160110361179757507f1892f0f4264e3a9a583206dfdf5fcad42cff9389bc3c883e20aa8542a81efc0a919050565b816012036117c657507f094d44f2f42e2932b7edc78208020e6451580fe809cd830b42d66abe8e1ca17c919050565b816013036117f557507f19eecb2d7bd54dbf33978a58c6a4108479cd4a6b5098aff3fd85977e48b63376919050565b8160140361182457507f0dc7fb8d7a518944da82d57f3031c4fbe4959bee56bf9dceb7d931e32d5fd3ae919050565b8160150361185357507f0acf7ac8161c0ea85855f1fbcfb0a8fa6b6e9a53d94efdf9d31caf6b695b08cb919050565b8160160361188257507f178a1a6b8c3aed14f1c0a83e9e52323b23b99e1ccf08fa010e6bd5480cc2a31b919050565b816017036118b157507f2ef5bf12452e97e9a6e555251106f00223b7851286d561098fada0b7f9bb6a03919050565b816018036118e057507f1835c52bee935f545b17f880f8811ba62f1d157671fb8e5ffa2de24b7e2d2145919050565b604051635e2aaa0d60e11b815260048101839052602401610701565b6040516001600160a01b03808516602483015283166044820152606481018290526106a29085906323b872dd60e01b906084015b60408051601f198184030181529190526020810180516001600160e01b03166001600160e01b031990931692909217909152611b49565b60007f30644e72e131a029b85045b68181585d2833e84879b9709143e1f593f000000183106119ac57604051636db901ff60e11b815260048101849052602401610701565b6119b860186002612718565b82106119e157604051637ac5a79960e01b81526018600482015260248101839052604401610701565b8260005b60188160ff161015611aeb5783600116600003611a40576040518060400160405280838152602001611a198360ff16611447565b905260ff821660009081526024890160205260409020611a3a916002611d7e565b50611a5b565b60ff8116600090815260248801602052604090208290600101555b60ff811660009081526024880160205260409081902090516314d2f97b60e11b81526001600160a01b038816916329a5f2f691611a9b9190600401612724565b602060405180830381865afa158015611ab8573d6000803e3d6000fd5b505050506040513d601f19601f82011682018060405250810190611adc91906125eb565b600194851c94909250016119e5565b506001808701829055600287018054600090611b0890849061258a565b90915550909150505b949350505050565b6040516001600160a01b038316602482015260448101829052610d6c90849063a9059cbb60e01b90606401611930565b6000611b9e826040518060400160405280602081526020017f5361666545524332303a206c6f772d6c6576656c2063616c6c206661696c6564815250856001600160a01b0316611c1e9092919063ffffffff16565b9050805160001480611bbf575080806020019051810190611bbf91906124b2565b610d6c5760405162461bcd60e51b815260206004820152602a60248201527f5361666545524332303a204552433230206f7065726174696f6e20646964206e6044820152691bdd081cdd58d8d9595960b21b6064820152608401610701565b6060611b11848460008585600080866001600160a01b03168587604051611c45919061274c565b60006040518083038185875af1925050503d8060008114611c82576040519150601f19603f3d011682016040523d82523d6000602084013e611c87565b606091505b5091509150611c9887838387611ca3565b979650505050505050565b60608315611d12578251600003611d0b576001600160a01b0385163b611d0b5760405162461bcd60e51b815260206004820152601d60248201527f416464726573733a2063616c6c20746f206e6f6e2d636f6e74726163740000006044820152606401610701565b5081611b11565b611b118383815115611d275781518083602001fd5b8060405162461bcd60e51b81526004016107019190611f46565b6040518061040001604052806020906020820280368337509192915050565b60405180604001604052806002906020820280368337509192915050565b8260028101928215611dac579160200282015b82811115611dac578251825591602001919060010190611d91565b50611db8929150611dbc565b5090565b5b80821115611db85760008155600101611dbd565b6001600160a01b038116811461054057600080fd5b600060208284031215611df857600080fd5b813561138b81611dd1565b634e487b7160e01b600052604160045260246000fd5b600060208284031215611e2b57600080fd5b813567ffffffffffffffff80821115611e4357600080fd5b818401915084601f830112611e5757600080fd5b813581811115611e6957611e69611e03565b604051601f8201601f19908116603f01168101908382118183101715611e9157611e91611e03565b81604052828152876020848701011115611eaa57600080fd5b826020860160208301376000928101602001929092525095945050505050565b60008060408385031215611edd57600080fd5b8235611ee881611dd1565b946020939093013593505050565b60005b83811015611f11578181015183820152602001611ef9565b50506000910152565b60008151808452611f32816020860160208601611ef6565b601f01601f19169290920160200192915050565b6020815260006104826020830184611f1a565b6104008101818360005b6020808210611f725750611f86565b825184529283019290910190600101611f63565b50505092915050565b60006101208284031215611fa257600080fd5b50919050565b600060808284031215611fa257600080fd5b6000806000838503610100811215611fd157600080fd5b843567ffffffffffffffff811115611fe857600080fd5b611ff487828801611f8f565b9450506120048660208701611fa8565b92506060609f198201121561201857600080fd5b5060a0840190509250925092565b60408101818360005b6002811015611f8657815183526020928301929091019060010161202f565b60008060a0838503121561206157600080fd5b823567ffffffffffffffff81111561207857600080fd5b61208485828601611f8f565b9250506120948460208501611fa8565b90509250929050565b600181811c908216806120b157607f821691505b602082108103611fa257634e487b7160e01b600052602260045260246000fd5b601f821115610d6c57600081815260208120601f850160051c810160208610156120f85750805b601f850160051c820191505b818110156111aa57828155600101612104565b815167ffffffffffffffff81111561213157612131611e03565b6121458161213f845461209d565b846120d1565b602080601f83116001811461217a57600084156121625750858301515b600019600386901b1c1916600185901b1785556111aa565b600085815260208120601f198616915b828110156121a95788860151825594840194600190910190840161218a565b50858210156121c75787850151600019600388901b60f8161c191681555b5050505050600190811b01905550565b803561ffff811681146121e957600080fd5b919050565b60006020828403121561220057600080fd5b610482826121d7565b6000823560be1983360301811261221f57600080fd5b9190910192915050565b803563ffffffff811681146121e957600080fd5b60006020828403121561224f57600080fd5b61048282612229565b60006080828403121561226a57600080fd5b6040516080810181811067ffffffffffffffff8211171561228d5761228d611e03565b604052612299836121d7565b815260208301356122a981611dd1565b602082015260408301356122bc81611dd1565b60408201526122cd60608401612229565b60608201529392505050565b6000808335601e198436030181126122f057600080fd5b83018035915067ffffffffffffffff82111561230b57600080fd5b6020019150600581901b360382131561232357600080fd5b9250929050565b6000808335601e1984360301811261234157600080fd5b830160208101925035905067ffffffffffffffff81111561236157600080fd5b8060051b360382131561232357600080fd5b81835260006001600160fb1b0383111561238c57600080fd5b8260051b80836020870137939093016020019392505050565b600061012060408084863780850181850160005b60028110156123d6578382843791830191908301906001016123b9565b5050508060c0850160c08701376101008085013560be198636030181126123fc57600080fd5b86820184905285018035878501526020810135610140880152828101356101608801526060810135610180880152612437608082018261232a565b9450925060c06101a08801526124526101e088018585612373565b935061246160a082018261232a565b935091505061011f19868403016101c087015261247f838383612373565b9695505050505050565b60408152600061249c60408301856123a5565b905061ffff60f01b831660208301529392505050565b6000602082840312156124c457600080fd5b8151801515811461138b57600080fd5b60208152600061048260208301846123a5565b634e487b7160e01b600052601160045260246000fd5b81810381811115610485576104856124e7565b6001600160a01b03848116825260a0820190843561252d81611dd1565b818116602085015250602085013561254481611dd1565b8181166040850152505061ffff61255d604086016121d7565b166060830152826080830152949350505050565b60ff8281168282160390811115610485576104856124e7565b80820180821115610485576104856124e7565b634e487b7160e01b600052601260045260246000fd5b6000826125d057634e487b7160e01b600052601260045260246000fd5b500690565b634e487b7160e01b600052603260045260246000fd5b6000602082840312156125fd57600080fd5b5051919050565b60018060a01b038416815282602082015260606040820152600061262b6060830184611f1a565b95945050505050565b600181815b8085111561266f578160001904821115612655576126556124e7565b8085161561266257918102915b93841c9390800290612639565b509250929050565b60008261268657506001610485565b8161269357506000610485565b81600181146126a957600281146126b3576126cf565b6001915050610485565b60ff8411156126c4576126c46124e7565b50506001821b610485565b5060208310610133831016604e8410600b84101617156126f2575081810a610485565b6126fc8383612634565b8060001904821115612710576127106124e7565b029392505050565b60006104828383612677565b60408101818360005b6002811015611f8657815483526020909201916001918201910161272d565b6000825161221f818460208701611ef656fea2646970667358221220cf7cdb0c2630eb7b25ab1fb3a6c0dbb51c3988388ba62a4d9ff0064cffc75a7d64736f6c63430008140033",
  "linkReferences": {},
  "deployedLinkReferences": {}
}