{
  "_format": "hh-sol-artifact-1",
  "contractName": "Cipher",
  "sourceName": "contracts/Cipher.sol",
  "abi": [
    {
      "inputs": [
        {
          "internalType": "address",
          "name": "verifierAddr",
          "type": "address"
        }
      ],
      "stateMutability": "nonpayable",
      "type": "constructor"
    },
    {
      "inputs": [
        {
          "internalType": "uint256",
          "name": "amount",
          "type": "uint256"
        },
        {
          "internalType": "uint256",
          "name": "transferredAmt",
          "type": "uint256"
        }
      ],
      "name": "AmountInconsistent",
      "type": "error"
    },
    {
      "inputs": [
        {
          "internalType": "uint32",
          "name": "deadline",
          "type": "uint32"
        }
      ],
      "name": "ExpiredDeadline",
      "type": "error"
    },
    {
      "inputs": [
        {
          "internalType": "uint256",
          "name": "commitmentNum",
          "type": "uint256"
        }
      ],
      "name": "InvalidCommitmentNum",
      "type": "error"
    },
    {
      "inputs": [],
      "name": "InvalidFeeReceiverAddr",
      "type": "error"
    },
    {
      "inputs": [
        {
          "internalType": "uint16",
          "name": "maxAllowableFeeRate",
          "type": "uint16"
        }
      ],
      "name": "InvalidMaxAllowableFeeRate",
      "type": "error"
    },
    {
      "inputs": [
        {
          "internalType": "uint256",
          "name": "msgValue",
          "type": "uint256"
        }
      ],
      "name": "InvalidMsgValue",
      "type": "error"
    },
    {
      "inputs": [
        {
          "internalType": "uint256",
          "name": "nullifier",
          "type": "uint256"
        }
      ],
      "name": "InvalidNullifier",
      "type": "error"
    },
    {
      "inputs": [
        {
          "internalType": "uint256",
          "name": "nullifierNum",
          "type": "uint256"
        }
      ],
      "name": "InvalidNullifierNum",
      "type": "error"
    },
    {
      "inputs": [
        {
          "components": [
            {
              "internalType": "uint256[2]",
              "name": "a",
              "type": "uint256[2]"
            },
            {
              "internalType": "uint256[2][2]",
              "name": "b",
              "type": "uint256[2][2]"
            },
            {
              "internalType": "uint256[2]",
              "name": "c",
              "type": "uint256[2]"
            },
            {
              "components": [
                {
                  "internalType": "uint256",
                  "name": "root",
                  "type": "uint256"
                },
                {
                  "internalType": "uint256",
                  "name": "publicInAmt",
                  "type": "uint256"
                },
                {
                  "internalType": "uint256",
                  "name": "publicOutAmt",
                  "type": "uint256"
                },
                {
                  "internalType": "uint256",
                  "name": "publicInfoHash",
                  "type": "uint256"
                },
                {
                  "internalType": "uint256[]",
                  "name": "inputNullifiers",
                  "type": "uint256[]"
                },
                {
                  "internalType": "uint256[]",
                  "name": "outputCommitments",
                  "type": "uint256[]"
                }
              ],
              "internalType": "struct PublicSignals",
              "name": "publicSignals",
              "type": "tuple"
            }
          ],
          "internalType": "struct Proof",
          "name": "proof",
          "type": "tuple"
        }
      ],
      "name": "InvalidProof",
      "type": "error"
    },
    {
      "inputs": [
        {
          "internalType": "uint256",
          "name": "publicInfoHash",
          "type": "uint256"
        },
        {
          "internalType": "uint256",
          "name": "calcPublicInfoHash",
          "type": "uint256"
        }
      ],
      "name": "InvalidPublicInfo",
      "type": "error"
    },
    {
      "inputs": [],
      "name": "InvalidRecipientAddr",
      "type": "error"
    },
    {
      "inputs": [
        {
          "internalType": "uint16",
          "name": "feeRate",
          "type": "uint16"
        },
        {
          "internalType": "uint16",
          "name": "maxAllowableFeeRate",
          "type": "uint16"
        }
      ],
      "name": "InvalidRelayerFeeRate",
      "type": "error"
    },
    {
      "inputs": [
        {
          "internalType": "uint256",
          "name": "root",
          "type": "uint256"
        }
      ],
      "name": "InvalidRoot",
      "type": "error"
    },
    {
      "inputs": [
        {
          "internalType": "address",
          "name": "notRegisteredRelayerAddr",
          "type": "address"
        }
      ],
      "name": "NotRegisteredRelayer",
      "type": "error"
    },
    {
      "inputs": [
        {
          "internalType": "contract IERC20",
          "name": "token",
          "type": "address"
        }
      ],
      "name": "TokenTreeAlreadyInitialized",
      "type": "error"
    },
    {
      "inputs": [
        {
          "internalType": "contract IERC20",
          "name": "token",
          "type": "address"
        }
      ],
      "name": "TokenTreeNotExists",
      "type": "error"
    },
    {
      "inputs": [
        {
          "internalType": "address payable",
          "name": "receiver",
          "type": "address"
        },
        {
          "internalType": "uint256",
          "name": "amount",
          "type": "uint256"
        },
        {
          "internalType": "bytes",
          "name": "data",
          "type": "bytes"
        }
      ],
      "name": "TransferNativeTokenFailed",
      "type": "error"
    },
    {
      "anonymous": false,
      "inputs": [
        {
          "indexed": true,
          "internalType": "contract IERC20",
          "name": "token",
          "type": "address"
        },
        {
          "indexed": false,
          "internalType": "uint256",
          "name": "commitment",
          "type": "uint256"
        },
        {
          "indexed": false,
          "internalType": "uint256",
          "name": "leafIndex",
          "type": "uint256"
        }
      ],
      "name": "NewCommitment",
      "type": "event"
    },
    {
      "anonymous": false,
      "inputs": [
        {
          "indexed": true,
          "internalType": "contract IERC20",
          "name": "token",
          "type": "address"
        },
        {
          "indexed": false,
          "internalType": "uint256",
          "name": "nullifier",
          "type": "uint256"
        }
      ],
      "name": "NewNullifier",
      "type": "event"
    },
    {
      "anonymous": false,
      "inputs": [
        {
          "indexed": true,
          "internalType": "address",
          "name": "relayer",
          "type": "address"
        },
        {
          "indexed": false,
          "internalType": "string",
          "name": "relayerMetadataUri",
          "type": "string"
        }
      ],
      "name": "NewRelayer",
      "type": "event"
    },
    {
      "anonymous": false,
      "inputs": [
        {
          "indexed": true,
          "internalType": "contract IERC20",
          "name": "token",
          "type": "address"
        },
        {
          "indexed": false,
          "internalType": "uint256",
          "name": "root",
          "type": "uint256"
        }
      ],
      "name": "NewRoot",
      "type": "event"
    },
    {
      "anonymous": false,
      "inputs": [
        {
          "indexed": true,
          "internalType": "contract IERC20",
          "name": "token",
          "type": "address"
        },
        {
          "indexed": false,
          "internalType": "uint256",
          "name": "merkleTreeDepth",
          "type": "uint256"
        },
        {
          "indexed": false,
          "internalType": "uint256",
          "name": "zeroValue",
          "type": "uint256"
        }
      ],
      "name": "NewTokenTree",
      "type": "event"
    },
    {
      "anonymous": false,
      "inputs": [
        {
          "indexed": false,
          "internalType": "address",
          "name": "sender",
          "type": "address"
        },
        {
          "components": [
            {
              "internalType": "address payable",
              "name": "registeredAddr",
              "type": "address"
            },
            {
              "internalType": "address payable",
              "name": "feeReceiver",
              "type": "address"
            },
            {
              "internalType": "uint16",
              "name": "feeRate",
              "type": "uint16"
            }
          ],
          "indexed": false,
          "internalType": "struct RelayerInfo",
          "name": "relayerInfo",
          "type": "tuple"
        },
        {
          "indexed": false,
          "internalType": "uint256",
          "name": "feeAmt",
          "type": "uint256"
        }
      ],
      "name": "RelayInfo",
      "type": "event"
    },
    {
      "anonymous": false,
      "inputs": [
        {
          "indexed": true,
          "internalType": "address",
          "name": "relayer",
          "type": "address"
        },
        {
          "indexed": false,
          "internalType": "string",
          "name": "newRelayerMetadataUri",
          "type": "string"
        }
      ],
      "name": "RelayerUpdated",
      "type": "event"
    },
    {
      "inputs": [
        {
          "components": [
            {
              "internalType": "uint256[2]",
              "name": "a",
              "type": "uint256[2]"
            },
            {
              "internalType": "uint256[2][2]",
              "name": "b",
              "type": "uint256[2][2]"
            },
            {
              "internalType": "uint256[2]",
              "name": "c",
              "type": "uint256[2]"
            },
            {
              "components": [
                {
                  "internalType": "uint256",
                  "name": "root",
                  "type": "uint256"
                },
                {
                  "internalType": "uint256",
                  "name": "publicInAmt",
                  "type": "uint256"
                },
                {
                  "internalType": "uint256",
                  "name": "publicOutAmt",
                  "type": "uint256"
                },
                {
                  "internalType": "uint256",
                  "name": "publicInfoHash",
                  "type": "uint256"
                },
                {
                  "internalType": "uint256[]",
                  "name": "inputNullifiers",
                  "type": "uint256[]"
                },
                {
                  "internalType": "uint256[]",
                  "name": "outputCommitments",
                  "type": "uint256[]"
                }
              ],
              "internalType": "struct PublicSignals",
              "name": "publicSignals",
              "type": "tuple"
            }
          ],
          "internalType": "struct Proof",
          "name": "proof",
          "type": "tuple"
        },
        {
          "components": [
            {
              "internalType": "uint16",
              "name": "maxAllowableFeeRate",
              "type": "uint16"
            },
            {
              "internalType": "address payable",
              "name": "recipient",
              "type": "address"
            },
            {
              "internalType": "contract IERC20",
              "name": "token",
              "type": "address"
            },
            {
              "internalType": "uint32",
              "name": "deadline",
              "type": "uint32"
            }
          ],
          "internalType": "struct PublicInfo",
          "name": "publicInfo",
          "type": "tuple"
        }
      ],
      "name": "cipherTransact",
      "outputs": [],
      "stateMutability": "payable",
      "type": "function"
    },
    {
      "inputs": [
        {
          "components": [
            {
              "internalType": "uint256[2]",
              "name": "a",
              "type": "uint256[2]"
            },
            {
              "internalType": "uint256[2][2]",
              "name": "b",
              "type": "uint256[2][2]"
            },
            {
              "internalType": "uint256[2]",
              "name": "c",
              "type": "uint256[2]"
            },
            {
              "components": [
                {
                  "internalType": "uint256",
                  "name": "root",
                  "type": "uint256"
                },
                {
                  "internalType": "uint256",
                  "name": "publicInAmt",
                  "type": "uint256"
                },
                {
                  "internalType": "uint256",
                  "name": "publicOutAmt",
                  "type": "uint256"
                },
                {
                  "internalType": "uint256",
                  "name": "publicInfoHash",
                  "type": "uint256"
                },
                {
                  "internalType": "uint256[]",
                  "name": "inputNullifiers",
                  "type": "uint256[]"
                },
                {
                  "internalType": "uint256[]",
                  "name": "outputCommitments",
                  "type": "uint256[]"
                }
              ],
              "internalType": "struct PublicSignals",
              "name": "publicSignals",
              "type": "tuple"
            }
          ],
          "internalType": "struct Proof",
          "name": "proof",
          "type": "tuple"
        },
        {
          "components": [
            {
              "internalType": "uint16",
              "name": "maxAllowableFeeRate",
              "type": "uint16"
            },
            {
              "internalType": "address payable",
              "name": "recipient",
              "type": "address"
            },
            {
              "internalType": "contract IERC20",
              "name": "token",
              "type": "address"
            },
            {
              "internalType": "uint32",
              "name": "deadline",
              "type": "uint32"
            }
          ],
          "internalType": "struct PublicInfo",
          "name": "publicInfo",
          "type": "tuple"
        },
        {
          "components": [
            {
              "internalType": "address payable",
              "name": "registeredAddr",
              "type": "address"
            },
            {
              "internalType": "address payable",
              "name": "feeReceiver",
              "type": "address"
            },
            {
              "internalType": "uint16",
              "name": "feeRate",
              "type": "uint16"
            }
          ],
          "internalType": "struct RelayerInfo",
          "name": "relayerInfo",
          "type": "tuple"
        }
      ],
      "name": "cipherTransactWithRelayer",
      "outputs": [],
      "stateMutability": "payable",
      "type": "function"
    },
    {
      "inputs": [
        {
          "internalType": "address",
          "name": "relayerAddr",
          "type": "address"
        }
      ],
      "name": "getRelayerMetadataUri",
      "outputs": [
        {
          "internalType": "string",
          "name": "",
          "type": "string"
        }
      ],
      "stateMutability": "view",
      "type": "function"
    },
    {
      "inputs": [
        {
          "internalType": "contract IERC20",
          "name": "token",
          "type": "address"
        }
      ],
      "name": "getTreeDepth",
      "outputs": [
        {
          "internalType": "uint256",
          "name": "",
          "type": "uint256"
        }
      ],
      "stateMutability": "view",
      "type": "function"
    },
    {
      "inputs": [
        {
          "internalType": "contract IERC20",
          "name": "token",
          "type": "address"
        },
        {
          "internalType": "uint256",
          "name": "level",
          "type": "uint256"
        }
      ],
      "name": "getTreeLastSubtrees",
      "outputs": [
        {
          "internalType": "uint256[2]",
          "name": "",
          "type": "uint256[2]"
        }
      ],
      "stateMutability": "view",
      "type": "function"
    },
    {
      "inputs": [
        {
          "internalType": "contract IERC20",
          "name": "token",
          "type": "address"
        }
      ],
      "name": "getTreeLeafNum",
      "outputs": [
        {
          "internalType": "uint256",
          "name": "",
          "type": "uint256"
        }
      ],
      "stateMutability": "view",
      "type": "function"
    },
    {
      "inputs": [
        {
          "internalType": "contract IERC20",
          "name": "token",
          "type": "address"
        }
      ],
      "name": "getTreeRoot",
      "outputs": [
        {
          "internalType": "uint256",
          "name": "",
          "type": "uint256"
        }
      ],
      "stateMutability": "view",
      "type": "function"
    },
    {
      "inputs": [
        {
          "internalType": "contract IERC20",
          "name": "token",
          "type": "address"
        },
        {
          "internalType": "uint256",
          "name": "level",
          "type": "uint256"
        }
      ],
      "name": "getTreeZeroes",
      "outputs": [
        {
          "internalType": "uint256",
          "name": "",
          "type": "uint256"
        }
      ],
      "stateMutability": "view",
      "type": "function"
    },
    {
      "inputs": [],
      "name": "getVerifier",
      "outputs": [
        {
          "internalType": "contract ICipherVerifier",
          "name": "",
          "type": "address"
        }
      ],
      "stateMutability": "view",
      "type": "function"
    },
    {
      "inputs": [
        {
          "internalType": "contract IERC20",
          "name": "token",
          "type": "address"
        }
      ],
      "name": "initTokenTree",
      "outputs": [],
      "stateMutability": "nonpayable",
      "type": "function"
    },
    {
      "inputs": [
        {
          "internalType": "contract IERC20",
          "name": "token",
          "type": "address"
        },
        {
          "internalType": "uint256",
          "name": "nullifier",
          "type": "uint256"
        }
      ],
      "name": "isNullified",
      "outputs": [
        {
          "internalType": "bool",
          "name": "",
          "type": "bool"
        }
      ],
      "stateMutability": "view",
      "type": "function"
    },
    {
      "inputs": [
        {
          "internalType": "contract IERC20",
          "name": "token",
          "type": "address"
        },
        {
          "internalType": "uint256",
          "name": "root",
          "type": "uint256"
        }
      ],
      "name": "isValidRoot",
      "outputs": [
        {
          "internalType": "bool",
          "name": "",
          "type": "bool"
        }
      ],
      "stateMutability": "view",
      "type": "function"
    },
    {
      "inputs": [
        {
          "internalType": "string",
          "name": "relayerMetadataUri",
          "type": "string"
        }
      ],
      "name": "registerAsRelayer",
      "outputs": [],
      "stateMutability": "nonpayable",
      "type": "function"
    },
    {
      "inputs": [
        {
          "internalType": "string",
          "name": "newRelayerMetadataUri",
          "type": "string"
        }
      ],
      "name": "updateRelayerMetadataUri",
      "outputs": [],
      "stateMutability": "nonpayable",
      "type": "function"
    }
  ],
  "bytecode": "0x60a06040523480156200001157600080fd5b50604051620022a0380380620022a08339810160408190526200003491620001cd565b6001600160a01b0381166080526200006073eeeeeeeeeeeeeeeeeeeeeeeeeeeeeeeeeeeeeeee62000067565b5062000222565b6001600160a01b0381166000908152602081905260409020805415620000af576040516301e77d5760e21b81526001600160a01b038316600482015260240160405180910390fd5b604080516001600160a01b03841660208201526000917f30644e72e131a029b85045b68181585d2833e84879b9709143e1f593f000000191016040516020818303038152906040528051906020012060001c6200010d9190620001ff565b6040516304257eed60e21b815260048101849052601860248201526044810182905290915073__$0c6eb7207c37accf1552a1c47686411ac0$__90631095fbb49060640160006040518083038186803b1580156200016a57600080fd5b505af41580156200017f573d6000803e3d6000fd5b50506040805160188152602081018590526001600160a01b03871693507feab538ec737b1132214c9686de5dfc26c8100a6e9baf0870bc4740768e4adfc192500160405180910390a2505050565b600060208284031215620001e057600080fd5b81516001600160a01b0381168114620001f857600080fd5b9392505050565b6000826200021d57634e487b7160e01b600052601260045260246000fd5b500690565b60805161205b620002456000396000818161016a0152610b11015261205b6000f3fe6080604052600436106100dd5760003560e01c8063590651c31161007f5780639b5da155116100595780639b5da155146102b9578063c2f20e4c146102cc578063d1d34aba14610305578063e9b51efd1461033b57600080fd5b8063590651c3146102595780638c36335c14610279578063939c73231461028c57600080fd5b806350ddda38116100bb57806350ddda38146101945780635239bdc6146101b457806357089eff146101e45780635842f3531461021157600080fd5b8063338afc25146100e25780633c905ada1461012e57806346657fe914610150575b600080fd5b3480156100ee57600080fd5b5061011b6100fd3660046117d9565b6001600160a01b031660009081526020819052604090206001015490565b6040519081526020015b60405180910390f35b34801561013a57600080fd5b5061014e61014936600461180c565b610380565b005b34801561015c57600080fd5b506040516001600160a01b037f0000000000000000000000000000000000000000000000000000000000000000168152602001610125565b3480156101a057600080fd5b5061014e6101af36600461180c565b6103de565b3480156101c057600080fd5b506101d46101cf3660046118bd565b610431565b6040519015158152602001610125565b3480156101f057600080fd5b506102046101ff3660046117d9565b61045c565b6040516101259190611939565b34801561021d57600080fd5b506101d461022c3660046118bd565b6001600160a01b039190911660009081526020818152604080832093835260279093019052205460ff1690565b34801561026557600080fd5b5061014e6102743660046117d9565b610508565b61014e610287366004611977565b610514565b34801561029857600080fd5b506102ac6102a73660046118bd565b610578565b60405161012591906119e3565b61014e6102c7366004611a14565b6105d6565b3480156102d857600080fd5b5061011b6102e73660046117d9565b6001600160a01b031660009081526020819052604090206002015490565b34801561031157600080fd5b5061011b6103203660046117d9565b6001600160a01b031660009081526020819052604090205490565b34801561034757600080fd5b5061011b6103563660046118bd565b6001600160a01b039190911660009081526020818152604080832093835260039093019052205490565b3360009081526001602052604090206103998282611add565b50336001600160a01b03167ff07dbf3d77012f0b44fefb89300e81a4682a0955db1e819c834d2023583489cb826040516103d39190611939565b60405180910390a250565b3360009081526001602052604090206103f78282611add565b50336001600160a01b03167f1721af3bd88b17087fbd950308f14ceb29a287cf0a9750b0ace83743a31485d7826040516103d39190611939565b6001600160a01b03821660009081526020819052604081206104539083610622565b90505b92915050565b6001600160a01b038116600090815260016020526040902080546060919061048390611a63565b80601f01602080910402602001604051908101604052809291908181526020018280546104af90611a63565b80156104fc5780601f106104d1576101008083540402835291602001916104fc565b820191906000526020600020905b8154815290600101906020018083116104df57829003601f168201915b50505050509050919050565b6105118161063c565b50565b61052a6105246020840184611bb4565b8261079e565b600061053c60608401604085016117d9565b90503661054d610100860186611bcf565b905061055b82868684610972565b6040810135156105715761057182858386610c46565b5050505050565b6105806117a6565b6001600160a01b038316600090815260208181526040808320858452600401909152908190208151808301928390529160029082845b8154815260200190600101908083116105b6575050505050905092915050565b60006105e860608301604084016117d9565b9050366105f9610100850185611bcf565b905061060782858584610972565b60408101351561061c5761061c828483610d40565b50505050565b600182015460009082148061045357506104538383610da6565b6001600160a01b0381166000908152602081905260409020805415610684576040516301e77d5760e21b81526001600160a01b03831660048201526024015b60405180910390fd5b604080516001600160a01b03841660208201526000917f30644e72e131a029b85045b68181585d2833e84879b9709143e1f593f000000191016040516020818303038152906040528051906020012060001c6106e09190611c05565b6040516304257eed60e21b815260048101849052601860248201526044810182905290915073__$0c6eb7207c37accf1552a1c47686411ac0$__90631095fbb49060640160006040518083038186803b15801561073c57600080fd5b505af4158015610750573d6000803e3d6000fd5b50506040805160188152602081018590526001600160a01b03871693507feab538ec737b1132214c9686de5dfc26c8100a6e9baf0870bc4740768e4adfc192500160405180910390a2505050565b61271061ffff831611156107cb576040516350938ca360e01b815261ffff8316600482015260240161067b565b61ffff82166107e06060830160408401611bb4565b61ffff161115610822576107fa6060820160408301611bb4565b60405163c82809a360e01b815261ffff9182166004820152908316602482015260440161067b565b600061083460408301602084016117d9565b6001600160a01b03160361085b5760405163bf0e84c560e01b815260040160405180910390fd5b60408051602080820190925260008082526109379260019190610880908601866117d9565b6001600160a01b03166001600160a01b0316815260200190815260200160002080546108ab90611a63565b80601f01602080910402602001604051908101604052809291908181526020018280546108d790611a63565b80156109245780601f106108f957610100808354040283529160200191610924565b820191906000526020600020905b81548152906001019060200180831161090757829003601f168201915b5050505050610e4590919063ffffffff16565b1561096e5761094960208201826117d9565b604051630995a56b60e11b81526001600160a01b03909116600482015260240161067b565b5050565b426109836080840160608501611c3b565b63ffffffff1610156109c15761099f6080830160608401611c3b565b6040516305ea325d60e41b815263ffffffff909116600482015260240161067b565b60006109da6109d536859003850185611c56565b610e5b565b905080826060013514610a0d576040516327e01da760e21b8152606083013560048201526024810182905260440161067b565b6001600160a01b03851660009081526020819052604081208054909103610a5257604051631730525760e11b81526001600160a01b038716600482015260240161067b565b610a5d818435610622565b610a7d576040516386e013af60e01b81528335600482015260240161067b565b602083013515610aa457610a9f6001600160a01b038716336020860135610ee9565b610ac5565b3415610ac557604051630a61be9f60e41b815234600482015260240161067b565b6000610ad46080850185611cd7565b915060009050610ae760a0860186611cd7565b905090506000610af78383611076565b60405163118973f160e31b81529091506001600160a01b037f00000000000000000000000000000000000000000000000000000000000000001690638c4b9f8890610b48908b908590600401611e87565b6020604051808303816000875af1158015610b67573d6000803e3d6000fd5b505050506040513d601f19601f82011682018060405250810190610b8b9190611eb0565b610baa578760405163630b7deb60e11b815260040161067b9190611ed2565b8215610bcb57610bcb89610bc16080890189611cd7565b87929190876110d2565b8115610c3b57610bdc8487356111ae565b610bf789610bed60a0890189611cd7565b87929190866111f8565b60018401546040519081526001600160a01b038a16907f6117f6f4e00f18d1be17b3b1310c4d96ac548bb2c9a0265551e090a75afbfc189060200160405180910390a25b505050505050505050565b6000610c5860408501602086016117d9565b6001600160a01b031603610c7f5760405163b3a53cc360e01b815260040160405180910390fd5b6000610ca6610c946060840160408501611bb4565b60408501359061ffff16612710611301565b9050610cda610cbb60408601602087016117d9565b610cc9836040870135611efb565b6001600160a01b03881691906113f1565b610cfe610ced60408401602085016117d9565b6001600160a01b03871690836113f1565b7f8081aaad4d5fceea7be0b6904cf384644daa6d790ca9a5092817c182e9adf570338383604051610d3193929190611f0e565b60405180910390a15050505050565b6000610d5260408401602085016117d9565b6001600160a01b031603610d795760405163b3a53cc360e01b815260040160405180910390fd5b610da1610d8c60408401602085016117d9565b6001600160a01b0385169060408401356113f1565b505050565b60068201546000908190610dbe9060ff166020611f6f565b60ff1690506000610dd0602083611f88565b90505b80821015610e3a5760006020610de98185611c05565b610df4906020611efb565b610dfe9190611c05565b9050856007018160208110610e1557610e15611f9b565b01548503610e295760019350505050610456565b50610e3382611fb1565b9150610dd3565b506000949350505050565b8051602091820120825192909101919091201490565b60408051825161ffff166020808301919091528301516001600160a01b03908116828401529183015190911660608083019190915282015163ffffffff1660808201526000907f30644e72e131a029b85045b68181585d2833e84879b9709143e1f593f00000019060a0016040516020818303038152906040528051906020012060001c6104569190611c05565b73eeeeeeeeeeeeeeeeeeeeeeeeeeeeeeeeeeeeeeed196001600160a01b03841601610f3057803414610da157604051630a61be9f60e41b815234600482015260240161067b565b3415610f5157604051630a61be9f60e41b815234600482015260240161067b565b6040516370a0823160e01b81523060048201526000906001600160a01b038516906370a0823190602401602060405180830381865afa158015610f98573d6000803e3d6000fd5b505050506040513d601f19601f82011682018060405250810190610fbc9190611fca565b9050610fd36001600160a01b0385168430856114a6565b6040516370a0823160e01b815230600482015260009082906001600160a01b038716906370a0823190602401602060405180830381865afa15801561101c573d6000803e3d6000fd5b505050506040513d601f19601f820116820180604052508101906110409190611fca565b61104a9190611efb565b905080830361057157604051637c68559760e11b8152600481018490526024810182905260440161067b565b600061010083111561109e57604051633feeb8a160e01b81526004810184905260240161067b565b6101008211156110c4576040516343cc419d60e11b81526004810183905260240161067b565b5060089190911b1760f01b90565b60005b818110156111a65760008484838181106110f1576110f1611f9b565b60209081029290920135600081815260278b019093526040909220549192505060ff16156111355760405163d18d9dbb60e01b81526004810182905260240161067b565b600081815260278801602052604090819020805460ff19166001179055516001600160a01b038716907f98c7d13fd69ecce67bfaf114f30c59e32639f30e1d23bca3fcca951555d89b5d9061118d9084815260200190565b60405180910390a25061119f81611fb1565b90506110d5565b505050505050565b60068201548190600784019060ff16602081106111cd576111cd611f9b565b01556020600683015460019060ff1608600692909201805460ff191660ff9093169290921790915550565b60005b818110156111a657600084848381811061121757611217611f9b565b604051630b4381fd60e11b8152600481018b9052602091909102929092013560248301819052925073__$0c6eb7207c37accf1552a1c47686411ac0$__9163168703fa9150604401602060405180830381865af415801561127c573d6000803e3d6000fd5b505050506040513d601f19601f820116820180604052508101906112a09190611fca565b5060028701546040516001600160a01b038816917f178836574cee05ae88734424adca5b6039fa073e985267dc8a26ed466410a831916112e891858252602082015260400190565b60405180910390a2506112fa81611fb1565b90506111fb565b600080806000198587098587029250828110838203039150508060000361133b5783828161133157611331611bef565b04925050506113ea565b8084116113825760405162461bcd60e51b81526020600482015260156024820152744d6174683a206d756c446976206f766572666c6f7760581b604482015260640161067b565b600084868809851960019081018716968790049682860381900495909211909303600082900391909104909201919091029190911760038402600290811880860282030280860282030280860282030280860282030280860282030280860290910302029150505b9392505050565b73eeeeeeeeeeeeeeeeeeeeeeeeeeeeeeeeeeeeeeed196001600160a01b0384160161149257600080836001600160a01b03168360405160006040518083038185875af1925050503d8060008114611464576040519150601f19603f3d011682016040523d82523d6000602084013e611469565b606091505b50915091508161057157838382604051632065a34d60e01b815260040161067b93929190611fe3565b610da16001600160a01b0384168383611511565b6040516001600160a01b038085166024830152831660448201526064810182905261061c9085906323b872dd60e01b906084015b60408051601f198184030181529190526020810180516001600160e01b03166001600160e01b031990931692909217909152611541565b6040516001600160a01b038316602482015260448101829052610da190849063a9059cbb60e01b906064016114da565b6000611596826040518060400160405280602081526020017f5361666545524332303a206c6f772d6c6576656c2063616c6c206661696c6564815250856001600160a01b03166116169092919063ffffffff16565b90508051600014806115b75750808060200190518101906115b79190611eb0565b610da15760405162461bcd60e51b815260206004820152602a60248201527f5361666545524332303a204552433230206f7065726174696f6e20646964206e6044820152691bdd081cdd58d8d9595960b21b606482015260840161067b565b6060611625848460008561162d565b949350505050565b60608247101561168e5760405162461bcd60e51b815260206004820152602660248201527f416464726573733a20696e73756666696369656e742062616c616e636520666f6044820152651c8818d85b1b60d21b606482015260840161067b565b600080866001600160a01b031685876040516116aa9190612013565b60006040518083038185875af1925050503d80600081146116e7576040519150601f19603f3d011682016040523d82523d6000602084013e6116ec565b606091505b50915091506116fd87838387611708565b979650505050505050565b60608315611777578251600003611770576001600160a01b0385163b6117705760405162461bcd60e51b815260206004820152601d60248201527f416464726573733a2063616c6c20746f206e6f6e2d636f6e7472616374000000604482015260640161067b565b5081611625565b611625838381511561178c5781518083602001fd5b8060405162461bcd60e51b815260040161067b9190611939565b60405180604001604052806002906020820280368337509192915050565b6001600160a01b038116811461051157600080fd5b6000602082840312156117eb57600080fd5b81356113ea816117c4565b634e487b7160e01b600052604160045260246000fd5b60006020828403121561181e57600080fd5b813567ffffffffffffffff8082111561183657600080fd5b818401915084601f83011261184a57600080fd5b81358181111561185c5761185c6117f6565b604051601f8201601f19908116603f01168101908382118183101715611884576118846117f6565b8160405282815287602084870101111561189d57600080fd5b826020860160208301376000928101602001929092525095945050505050565b600080604083850312156118d057600080fd5b82356118db816117c4565b946020939093013593505050565b60005b838110156119045781810151838201526020016118ec565b50506000910152565b600081518084526119258160208601602086016118e9565b601f01601f19169290920160200192915050565b602081526000610453602083018461190d565b6000610120828403121561195f57600080fd5b50919050565b60006080828403121561195f57600080fd5b600080600083850361010081121561198e57600080fd5b843567ffffffffffffffff8111156119a557600080fd5b6119b18782880161194c565b9450506119c18660208701611965565b92506060609f19820112156119d557600080fd5b5060a0840190509250925092565b60408101818360005b6002811015611a0b5781518352602092830192909101906001016119ec565b50505092915050565b60008060a08385031215611a2757600080fd5b823567ffffffffffffffff811115611a3e57600080fd5b611a4a8582860161194c565b925050611a5a8460208501611965565b90509250929050565b600181811c90821680611a7757607f821691505b60208210810361195f57634e487b7160e01b600052602260045260246000fd5b601f821115610da157600081815260208120601f850160051c81016020861015611abe5750805b601f850160051c820191505b818110156111a657828155600101611aca565b815167ffffffffffffffff811115611af757611af76117f6565b611b0b81611b058454611a63565b84611a97565b602080601f831160018114611b405760008415611b285750858301515b600019600386901b1c1916600185901b1785556111a6565b600085815260208120601f198616915b82811015611b6f57888601518255948401946001909101908401611b50565b5085821015611b8d5787850151600019600388901b60f8161c191681555b5050505050600190811b01905550565b803561ffff81168114611baf57600080fd5b919050565b600060208284031215611bc657600080fd5b61045382611b9d565b6000823560be19833603018112611be557600080fd5b9190910192915050565b634e487b7160e01b600052601260045260246000fd5b600082611c2257634e487b7160e01b600052601260045260246000fd5b500690565b803563ffffffff81168114611baf57600080fd5b600060208284031215611c4d57600080fd5b61045382611c27565b600060808284031215611c6857600080fd5b6040516080810181811067ffffffffffffffff82111715611c8b57611c8b6117f6565b604052611c9783611b9d565b81526020830135611ca7816117c4565b60208201526040830135611cba816117c4565b6040820152611ccb60608401611c27565b60608201529392505050565b6000808335601e19843603018112611cee57600080fd5b83018035915067ffffffffffffffff821115611d0957600080fd5b6020019150600581901b3603821315611d2157600080fd5b9250929050565b6000808335601e19843603018112611d3f57600080fd5b830160208101925035905067ffffffffffffffff811115611d5f57600080fd5b8060051b3603821315611d2157600080fd5b81835260006001600160fb1b03831115611d8a57600080fd5b8260051b80836020870137939093016020019392505050565b600061012060408084863780850181850160005b6002811015611dd457838284379183019190830190600101611db7565b5050508060c0850160c08701376101008085013560be19863603018112611dfa57600080fd5b86820184905285018035878501526020810135610140880152828101356101608801526060810135610180880152611e356080820182611d28565b9450925060c06101a0880152611e506101e088018585611d71565b9350611e5f60a0820182611d28565b935091505061011f19868403016101c0870152611e7d838383611d71565b9695505050505050565b604081526000611e9a6040830185611da3565b905061ffff60f01b831660208301529392505050565b600060208284031215611ec257600080fd5b815180151581146113ea57600080fd5b6020815260006104536020830184611da3565b634e487b7160e01b600052601160045260246000fd5b8181038181111561045657610456611ee5565b6001600160a01b03848116825260a08201908435611f2b816117c4565b8181166020850152506020850135611f42816117c4565b8181166040850152505061ffff611f5b60408601611b9d565b166060830152826080830152949350505050565b60ff828116828216039081111561045657610456611ee5565b8082018082111561045657610456611ee5565b634e487b7160e01b600052603260045260246000fd5b600060018201611fc357611fc3611ee5565b5060010190565b600060208284031215611fdc57600080fd5b5051919050565b60018060a01b038416815282602082015260606040820152600061200a606083018461190d565b95945050505050565b60008251611be58184602087016118e956fea2646970667358221220ce59ed496c780975e042a9ecdf0174398148fa2441d539bb94c6c99799f0aaf964736f6c63430008140033",
  "linkReferences": {
    "@zk-kit/incremental-merkle-tree.sol/IncrementalBinaryTree.sol": {
      "IncrementalBinaryTree": [
        {
          "length": 20,
          "start": 308
        },
        {
          "length": 20,
          "start": 2380
        },
        {
          "length": 20,
          "start": 5254
        }
      ]
    }
  },
  "deployedLinkReferences": {
    "@zk-kit/incremental-merkle-tree.sol/IncrementalBinaryTree.sol": {
      "IncrementalBinaryTree": [
        {
          "length": 20,
          "start": 1799
        },
        {
          "length": 20,
          "start": 4673
        }
      ]
    }
  }
}